{"abi":[{"inputs":[{"internalType":"contract Token","name":"_token","type":"address"}],"stateMutability":"nonpayable","type":"constructor","name":"constructor"},{"anonymous":false,"inputs":[{"indexed":true,"internalType":"address","name":"user","type":"address"},{"indexed":false,"internalType":"uint256","name":"etherAmount","type":"uint256"},{"indexed":false,"internalType":"uint256","name":"timeStart","type":"uint256"}],"name":"Deposit","type":"event"},{"anonymous":false,"inputs":[{"indexed":true,"internalType":"address","name":"user","type":"address"},{"indexed":false,"internalType":"uint256","name":"etherAmount","type":"uint256"},{"indexed":false,"internalType":"uint256","name":"depositTime","type":"uint256"},{"indexed":false,"internalType":"uint256","name":"interest","type":"uint256"}],"name":"Withdraw","type":"event"},{"inputs":[],"name":"deposit","outputs":[],"stateMutability":"payable","type":"function"},{"inputs":[{"internalType":"address","name":"","type":"address"}],"name":"depositStart","outputs":[{"internalType":"uint256","name":"","type":"uint256"}],"stateMutability":"view","type":"function"},{"inputs":[{"internalType":"address","name":"","type":"address"}],"name":"etherBalanceOf","outputs":[{"internalType":"uint256","name":"","type":"uint256"}],"stateMutability":"view","type":"function"},{"inputs":[{"internalType":"address","name":"","type":"address"}],"name":"isDeposited","outputs":[{"internalType":"bool","name":"","type":"bool"}],"stateMutability":"view","type":"function"},{"inputs":[],"name":"withdraw","outputs":[],"stateMutability":"payable","type":"function"}],"bytecode":"608060405234801561001057600080fd5b5060405161059238038061059283398101604081905261002f91610054565b600080546001600160a01b0319166001600160a01b0392909216919091179055610084565b60006020828403121561006657600080fd5b81516001600160a01b038116811461007d57600080fd5b9392505050565b6104ff806100936000396000f3fe60806040526004361061004a5760003560e01c8063179fc99f1461004f5780633ccfd60b1461008f5780637373202414610099578063d0e30db0146100d9578063ff87930a146100e1575b600080fd5b34801561005b57600080fd5b5061007c61006a366004610432565b60016020526000908152604090205481565b6040519081526020015b60405180910390f35b61009761010e565b005b3480156100a557600080fd5b506100c96100b4366004610432565b60036020526000908152604090205460ff1681565b6040519015158152602001610086565b6100976102b7565b3480156100ed57600080fd5b5061007c6100fc366004610432565b60026020526000908152604090205481565b3360009081526003602052604090205460ff1615156001146101775760405162461bcd60e51b815260206004820152601b60248201527f4552524f523a204e6f2070726576696f7573206465706f7369742e000000000060448201526064015b60405180910390fd5b33600090815260016020908152604080832054600290925282205490919061019f904261049c565b905060006101ae600a8361047a565b604051909150339084156108fc029085906000818181858888f193505050501580156101de573d6000803e3d6000fd5b506000546040516340c10f1960e01b8152336004820152602481018390526001600160a01b03909116906340c10f1990604401600060405180830381600087803b15801561022b57600080fd5b505af115801561023f573d6000803e3d6000fd5b5050336000818152600260209081526040808320839055600182528083208390556003825291829020805460ff1916905581518881529081018790529081018590529092507f02f25270a4d87bea75db541cdfe559334a275b4a233520ed6c0a2429667cca94915060600160405180910390a2505050565b3360009081526003602052604090205460ff16156103175760405162461bcd60e51b815260206004820152601e60248201527f4552524f523a204465706f73697420616c7265616479206163746976652e0000604482015260640161016e565b662386f26fc1000034101561038b5760405162461bcd60e51b815260206004820152603460248201527f4552524f523a204465706f73697420416d6f756e74206d75737420626520677260448201527332b0ba32b9103a3430b710181718189022aa241760611b606482015260840161016e565b33600090815260016020526040812080543492906103aa908490610462565b909155505033600090815260026020526040812080544292906103ce908490610462565b90915550503360008181526003602052604090819020805460ff19166001179055517f90890809c654f11d6e72a28fa60149770a0d11ec6c92319d6ceb2bb0a4ea1a15906104289034904290918252602082015260400190565b60405180910390a2565b60006020828403121561044457600080fd5b81356001600160a01b038116811461045b57600080fd5b9392505050565b60008219821115610475576104756104b3565b500190565b60008261049757634e487b7160e01b600052601260045260246000fd5b500490565b6000828210156104ae576104ae6104b3565b500390565b634e487b7160e01b600052601160045260246000fdfea2646970667358221220fd0d81d57ee78052d9e3a5662186fb5d6ab98f33e89d27a4d4379f6398442d6c64736f6c63430008070033","bytecodeSha1":"71bd530880e22c39126276109bb18f3ee25caf29","compiler":{"evm_version":"istanbul","optimizer":{"enabled":true,"runs":200},"version":"0.8.7+commit.e28d00a7"},"contractName":"dBank","language":"Solidity","natspec":{"kind":"dev","methods":{"constructor":{"details":"_token - Address of the DBC token "},"deposit()":{"notice":"Deposit ETH into the bank and earn interest"},"withdraw()":{"notice":"Withdraw deposited ETH and the DBC tokens (based on the interest)"}},"stateVariables":{"depositStart":{"details":"Tracks the time [how long has an address deposited ETH for] "},"etherBalanceOf":{"details":"Tracks the ETH balance of all addresses "},"isDeposited":{"details":"Tracks the deposit status for an address "}},"version":1},"opcodes":"PUSH1 0x80 PUSH1 0x40 MSTORE PUSH1 0x4 CALLDATASIZE LT PUSH2 0x4A JUMPI PUSH1 0x0 CALLDATALOAD PUSH1 0xE0 SHR DUP1 PUSH4 0x179FC99F EQ PUSH2 0x4F JUMPI DUP1 PUSH4 0x3CCFD60B EQ PUSH2 0x8F JUMPI DUP1 PUSH4 0x73732024 EQ PUSH2 0x99 JUMPI DUP1 PUSH4 0xD0E30DB0 EQ PUSH2 0xD9 JUMPI DUP1 PUSH4 0xFF87930A EQ PUSH2 0xE1 JUMPI JUMPDEST PUSH1 0x0 DUP1 REVERT JUMPDEST CALLVALUE DUP1 ISZERO PUSH2 0x5B JUMPI PUSH1 0x0 DUP1 REVERT JUMPDEST POP PUSH2 0x7C PUSH2 0x6A CALLDATASIZE PUSH1 0x4 PUSH2 0x432 JUMP JUMPDEST PUSH1 0x1 PUSH1 0x20 MSTORE PUSH1 0x0 SWAP1 DUP2 MSTORE PUSH1 0x40 SWAP1 KECCAK256 SLOAD DUP2 JUMP JUMPDEST PUSH1 0x40 MLOAD SWAP1 DUP2 MSTORE PUSH1 0x20 ADD JUMPDEST PUSH1 0x40 MLOAD DUP1 SWAP2 SUB SWAP1 RETURN JUMPDEST PUSH2 0x97 PUSH2 0x10E JUMP JUMPDEST STOP JUMPDEST CALLVALUE DUP1 ISZERO PUSH2 0xA5 JUMPI PUSH1 0x0 DUP1 REVERT JUMPDEST POP PUSH2 0xC9 PUSH2 0xB4 CALLDATASIZE PUSH1 0x4 PUSH2 0x432 JUMP JUMPDEST PUSH1 0x3 PUSH1 0x20 MSTORE PUSH1 0x0 SWAP1 DUP2 MSTORE PUSH1 0x40 SWAP1 KECCAK256 SLOAD PUSH1 0xFF AND DUP2 JUMP JUMPDEST PUSH1 0x40 MLOAD SWAP1 ISZERO ISZERO DUP2 MSTORE PUSH1 0x20 ADD PUSH2 0x86 JUMP JUMPDEST PUSH2 0x97 PUSH2 0x2B7 JUMP JUMPDEST CALLVALUE DUP1 ISZERO PUSH2 0xED JUMPI PUSH1 0x0 DUP1 REVERT JUMPDEST POP PUSH2 0x7C PUSH2 0xFC CALLDATASIZE PUSH1 0x4 PUSH2 0x432 JUMP JUMPDEST PUSH1 0x2 PUSH1 0x20 MSTORE PUSH1 0x0 SWAP1 DUP2 MSTORE PUSH1 0x40 SWAP1 KECCAK256 SLOAD DUP2 JUMP JUMPDEST CALLER PUSH1 0x0 SWAP1 DUP2 MSTORE PUSH1 0x3 PUSH1 0x20 MSTORE PUSH1 0x40 SWAP1 KECCAK256 SLOAD PUSH1 0xFF AND ISZERO ISZERO PUSH1 0x1 EQ PUSH2 0x177 JUMPI PUSH1 0x40 MLOAD PUSH3 0x461BCD PUSH1 0xE5 SHL DUP2 MSTORE PUSH1 0x20 PUSH1 0x4 DUP3 ADD MSTORE PUSH1 0x1B PUSH1 0x24 DUP3 ADD MSTORE PUSH32 0x4552524F523A204E6F2070726576696F7573206465706F7369742E0000000000 PUSH1 0x44 DUP3 ADD MSTORE PUSH1 0x64 ADD JUMPDEST PUSH1 0x40 MLOAD DUP1 SWAP2 SUB SWAP1 REVERT JUMPDEST CALLER PUSH1 0x0 SWAP1 DUP2 MSTORE PUSH1 0x1 PUSH1 0x20 SWAP1 DUP2 MSTORE PUSH1 0x40 DUP1 DUP4 KECCAK256 SLOAD PUSH1 0x2 SWAP1 SWAP3 MSTORE DUP3 KECCAK256 SLOAD SWAP1 SWAP2 SWAP1 PUSH2 0x19F SWAP1 TIMESTAMP PUSH2 0x49C JUMP JUMPDEST SWAP1 POP PUSH1 0x0 PUSH2 0x1AE PUSH1 0xA DUP4 PUSH2 0x47A JUMP JUMPDEST PUSH1 0x40 MLOAD SWAP1 SWAP2 POP CALLER SWAP1 DUP5 ISZERO PUSH2 0x8FC MUL SWAP1 DUP6 SWAP1 PUSH1 0x0 DUP2 DUP2 DUP2 DUP6 DUP9 DUP9 CALL SWAP4 POP POP POP POP ISZERO DUP1 ISZERO PUSH2 0x1DE JUMPI RETURNDATASIZE PUSH1 0x0 DUP1 RETURNDATACOPY RETURNDATASIZE PUSH1 0x0 REVERT JUMPDEST POP PUSH1 0x0 SLOAD PUSH1 0x40 MLOAD PUSH4 0x40C10F19 PUSH1 0xE0 SHL DUP2 MSTORE CALLER PUSH1 0x4 DUP3 ADD MSTORE PUSH1 0x24 DUP2 ADD DUP4 SWAP1 MSTORE PUSH1 0x1 PUSH1 0x1 PUSH1 0xA0 SHL SUB SWAP1 SWAP2 AND SWAP1 PUSH4 0x40C10F19 SWAP1 PUSH1 0x44 ADD PUSH1 0x0 PUSH1 0x40 MLOAD DUP1 DUP4 SUB DUP2 PUSH1 0x0 DUP8 DUP1 EXTCODESIZE ISZERO DUP1 ISZERO PUSH2 0x22B JUMPI PUSH1 0x0 DUP1 REVERT JUMPDEST POP GAS CALL ISZERO DUP1 ISZERO PUSH2 0x23F JUMPI RETURNDATASIZE PUSH1 0x0 DUP1 RETURNDATACOPY RETURNDATASIZE PUSH1 0x0 REVERT JUMPDEST POP POP CALLER PUSH1 0x0 DUP2 DUP2 MSTORE PUSH1 0x2 PUSH1 0x20 SWAP1 DUP2 MSTORE PUSH1 0x40 DUP1 DUP4 KECCAK256 DUP4 SWAP1 SSTORE PUSH1 0x1 DUP3 MSTORE DUP1 DUP4 KECCAK256 DUP4 SWAP1 SSTORE PUSH1 0x3 DUP3 MSTORE SWAP2 DUP3 SWAP1 KECCAK256 DUP1 SLOAD PUSH1 0xFF NOT AND SWAP1 SSTORE DUP2 MLOAD DUP9 DUP2 MSTORE SWAP1 DUP2 ADD DUP8 SWAP1 MSTORE SWAP1 DUP2 ADD DUP6 SWAP1 MSTORE SWAP1 SWAP3 POP PUSH32 0x2F25270A4D87BEA75DB541CDFE559334A275B4A233520ED6C0A2429667CCA94 SWAP2 POP PUSH1 0x60 ADD PUSH1 0x40 MLOAD DUP1 SWAP2 SUB SWAP1 LOG2 POP POP POP JUMP JUMPDEST CALLER PUSH1 0x0 SWAP1 DUP2 MSTORE PUSH1 0x3 PUSH1 0x20 MSTORE PUSH1 0x40 SWAP1 KECCAK256 SLOAD PUSH1 0xFF AND ISZERO PUSH2 0x317 JUMPI PUSH1 0x40 MLOAD PUSH3 0x461BCD PUSH1 0xE5 SHL DUP2 MSTORE PUSH1 0x20 PUSH1 0x4 DUP3 ADD MSTORE PUSH1 0x1E PUSH1 0x24 DUP3 ADD MSTORE PUSH32 0x4552524F523A204465706F73697420616C7265616479206163746976652E0000 PUSH1 0x44 DUP3 ADD MSTORE PUSH1 0x64 ADD PUSH2 0x16E JUMP JUMPDEST PUSH7 0x2386F26FC10000 CALLVALUE LT ISZERO PUSH2 0x38B JUMPI PUSH1 0x40 MLOAD PUSH3 0x461BCD PUSH1 0xE5 SHL DUP2 MSTORE PUSH1 0x20 PUSH1 0x4 DUP3 ADD MSTORE PUSH1 0x34 PUSH1 0x24 DUP3 ADD MSTORE PUSH32 0x4552524F523A204465706F73697420416D6F756E74206D757374206265206772 PUSH1 0x44 DUP3 ADD MSTORE PUSH20 0x32B0BA32B9103A3430B710181718189022AA2417 PUSH1 0x61 SHL PUSH1 0x64 DUP3 ADD MSTORE PUSH1 0x84 ADD PUSH2 0x16E JUMP JUMPDEST CALLER PUSH1 0x0 SWAP1 DUP2 MSTORE PUSH1 0x1 PUSH1 0x20 MSTORE PUSH1 0x40 DUP2 KECCAK256 DUP1 SLOAD CALLVALUE SWAP3 SWAP1 PUSH2 0x3AA SWAP1 DUP5 SWAP1 PUSH2 0x462 JUMP JUMPDEST SWAP1 SWAP2 SSTORE POP POP CALLER PUSH1 0x0 SWAP1 DUP2 MSTORE PUSH1 0x2 PUSH1 0x20 MSTORE PUSH1 0x40 DUP2 KECCAK256 DUP1 SLOAD TIMESTAMP SWAP3 SWAP1 PUSH2 0x3CE SWAP1 DUP5 SWAP1 PUSH2 0x462 JUMP JUMPDEST SWAP1 SWAP2 SSTORE POP POP CALLER PUSH1 0x0 DUP2 DUP2 MSTORE PUSH1 0x3 PUSH1 0x20 MSTORE PUSH1 0x40 SWAP1 DUP2 SWAP1 KECCAK256 DUP1 SLOAD PUSH1 0xFF NOT AND PUSH1 0x1 OR SWAP1 SSTORE MLOAD PUSH32 0x90890809C654F11D6E72A28FA60149770A0D11EC6C92319D6CEB2BB0A4EA1A15 SWAP1 PUSH2 0x428 SWAP1 CALLVALUE SWAP1 TIMESTAMP SWAP1 SWAP2 DUP3 MSTORE PUSH1 0x20 DUP3 ADD MSTORE PUSH1 0x40 ADD SWAP1 JUMP JUMPDEST PUSH1 0x40 MLOAD DUP1 SWAP2 SUB SWAP1 LOG2 JUMP JUMPDEST PUSH1 0x0 PUSH1 0x20 DUP3 DUP5 SUB SLT ISZERO PUSH2 0x444 JUMPI PUSH1 0x0 DUP1 REVERT JUMPDEST DUP2 CALLDATALOAD PUSH1 0x1 PUSH1 0x1 PUSH1 0xA0 SHL SUB DUP2 AND DUP2 EQ PUSH2 0x45B JUMPI PUSH1 0x0 DUP1 REVERT JUMPDEST SWAP4 SWAP3 POP POP POP JUMP JUMPDEST PUSH1 0x0 DUP3 NOT DUP3 GT ISZERO PUSH2 0x475 JUMPI PUSH2 0x475 PUSH2 0x4B3 JUMP JUMPDEST POP ADD SWAP1 JUMP JUMPDEST PUSH1 0x0 DUP3 PUSH2 0x497 JUMPI PUSH4 0x4E487B71 PUSH1 0xE0 SHL PUSH1 0x0 MSTORE PUSH1 0x12 PUSH1 0x4 MSTORE PUSH1 0x24 PUSH1 0x0 REVERT JUMPDEST POP DIV SWAP1 JUMP JUMPDEST PUSH1 0x0 DUP3 DUP3 LT ISZERO PUSH2 0x4AE JUMPI PUSH2 0x4AE PUSH2 0x4B3 JUMP JUMPDEST POP SUB SWAP1 JUMP JUMPDEST PUSH4 0x4E487B71 PUSH1 0xE0 SHL PUSH1 0x0 MSTORE PUSH1 0x11 PUSH1 0x4 MSTORE PUSH1 0x24 PUSH1 0x0 REVERT INVALID LOG2 PUSH5 0x6970667358 0x22 SLT KECCAK256 REVERT 0xD DUP2 0xD5 PUSH31 0xE78052D9E3A5662186FB5D6AB98F33E89D27A4D4379F6398442D6C64736F6C PUSH4 0x43000807 STOP CALLER ","sha1":"3498cd1b65b6c061bfd5ebc61dbcafc17049cd09","source":"// SPDX-License-Identifier: MIT\npragma solidity ^0.8.7;\n\nimport \"./Token.sol\";\n\ncontract dBank {\n    /** Assign Token contract to a variable */\n    Token private token;\n\n    // MAPPINGS\n\n    /** @dev Tracks the ETH balance of all addresses */\n    mapping(address => uint256) public etherBalanceOf;\n\n    /** @dev Tracks the time [how long has an address deposited ETH for] */\n    mapping(address => uint256) public depositStart;\n\n    /** @dev Tracks the deposit status for an address */\n    mapping(address => bool) public isDeposited;\n\n    // EVENTS\n    event Deposit(address indexed user, uint256 etherAmount, uint256 timeStart);\n    event Withdraw(\n        address indexed user,\n        uint256 etherAmount,\n        uint256 depositTime,\n        uint256 interest\n    );\n\n    /** @dev _token - Address of the DBC token */\n    constructor(Token _token) {\n        token = _token;\n    }\n\n    /**\n     * @notice Deposit ETH into the bank and earn interest\n     */\n    function deposit() public payable {\n        require(\n            isDeposited[msg.sender] == false,\n            \"ERROR: Deposit already active.\"\n        );\n        require(\n            msg.value >= 0.01 * 10**18,\n            \"ERROR: Deposit Amount must be greater than 0.01 ETH.\"\n        );\n        etherBalanceOf[msg.sender] += msg.value;\n        depositStart[msg.sender] += block.timestamp;\n        isDeposited[msg.sender] = true; // activates deposit status\n        emit Deposit(msg.sender, msg.value, block.timestamp);\n    }\n\n    /**\n     * @notice Withdraw deposited ETH and the DBC tokens (based on the interest)\n \n     */\n    function withdraw() public payable {\n        require(isDeposited[msg.sender] == true, \"ERROR: No previous deposit.\");\n\n        // Caching the user-balance\n        uint256 userBalance = etherBalanceOf[msg.sender];\n\n        // Check user's HODL time\n        uint256 depositTime = block.timestamp - depositStart[msg.sender];\n        // Pay the user based on each second of his depositTime.\n        uint256 interest = depositTime / 10;\n\n        // Transfer ETH to the user\n        payable(msg.sender).transfer(userBalance);\n        // Transfer interest earned in terms of DBC tokens to the user\n        token.mint(msg.sender, interest);\n\n        // Reset depositer data\n        depositStart[msg.sender] = 0;\n        etherBalanceOf[msg.sender] = 0;\n        isDeposited[msg.sender] = false;\n\n        // Emit Event\n        emit Withdraw(msg.sender, userBalance, depositTime, interest);\n    }\n}\n","sourcePath":"contracts/dBank.sol","type":"contract","deployment":{"address":"0x7CFaE67711f2ffc0D9512d820326fe5cBCd1e378","chainid":"1337","blockHeight":2}}